:100000000C942A000C943F000C943F000C943F0089
:100010000C943F000C943F000C943F000C943F0064
:100020000C943F000C943F000C943F000C943F0054
:100030000C943F000C943F000C943F000C943F0044
:100040000C943F000C943F000C943F000C943F0034
:100050000C943F0011241FBECFE5D8E0DEBFCDBF1A
:1000600010E0A0E6B0E0E8EDF6E002C005900D92E9
:10007000A037B107D9F70E9413010C946A030C94BE
:1000800000002FEF82E597E0215080409040E1F79B
:1000900000C0000085B3816085BB80E388BBEFE9C9
:1000A000FFE03197F1F700C0000095B39E7F95BB4C
:1000B000EFE1FEE43197F1F700C0000095B39160E5
:1000C00095BB88BBEFE9FFE03197F1F700C0000076
:1000D00095B39E7F95BBEFE1FEE43197F1F700C049
:1000E000000095B3916095BB88BB8FE99FE00197B5
:1000F000F1F700C0000085B38E7F85BBEFE1FEE421
:100100003197F1F700C0000085B3816085BB8CE3B7
:1001100088BB8FE99FE00197F1F700C0000085B32D
:100120008E7F85BBEFE1FEE43197F1F700C0000060
:1001300085B3816085BB88E088BB8FE99FE001972C
:10014000F1F700C0000085B38E7F85BBEFE1FEE4D0
:100150003197F1F700C0000085B3816085BB81E075
:1001600088BB8FE99FE00197F1F700C0000085B3DD
:100170008E7F85BBEFE1FEE43197F1F700C0000010
:1001800085B3816085BB86E088BB8FE99FE00197DE
:10019000F1F700C0000085B38E7F85BBEFE1FEE480
:1001A0003197F1F700C0000085B3816085BB8FE017
:1001B00088BB8FE99FE00197F1F700C0000085B38D
:1001C0008E7F85BBEFE1FEE43197F1F700C00000C0
:1001D000089585B3816085BB8FE59AEE0197F1F7AD
:1001E00000C0000085B38E7F85BB089588BB85B3B2
:1001F0008D7F85BB0E94E90018BA089588BB85B33E
:10020000826085BB0E94E90018BA0895CF93DF93FE
:10021000EC0103C021960E94FE0088818111FACF73
:10022000DF91CF910895CF93DF9300D01F92CDB788
:10023000DEB78FEF81BB87BB84BB1ABA0E94410037
:100240001BBA80E886B987EA86B981E487B980B7A6
:1002500010BE80B710BE80B710BE86B1806486B96C
:1002600082E88FBD8DE18EBD88E391E097BD86BDAC
:1002700024B135B13695279536952795A5E2B9E491
:100280000E942603969587959BBD8ABD64B175B182
:1002900080E090E00E942B0226EF38E24CE95EE31A
:1002A0000E94B90224E13EEA47E450E40E948A0138
:1002B0000E94FC016B017C01CB0101968017910724
:1002C00020F0029780179107E8F04AE0BE016F5FC7
:1002D0007F4FC6010E94350381E00E94F60080E650
:1002E00090E00E940601CE0101960E9406018DE673
:1002F00090E00E9406018FE39CE90197F1F700C0AE
:10030000000006C08FE39CE90197F1F700C00000F0
:100310008601AECF0E949E010C947F020E9478025B
:1003200058F00E94710240F029F45F3F29F00C94CC
:10033000680251110C94B3020C946E020E94900258
:1003400068F39923B1F3552391F3951B550BBB2704
:10035000AA2762177307840738F09F5F5F4F220F49
:10036000331F441FAA1FA9F335D00E2E3AF0E0E840
:1003700032D091505040E695001CCAF72BD0FE2F8A
:1003800029D0660F771F881FBB1F2617370748071E
:10039000AB07B0E809F0BB0B802DBF01FF279358D6
:1003A0005F4F3AF09E3F510578F00C9468020C9430
:1003B000B3025F3FE4F3983ED4F386957795679553
:1003C000B795F7959F5FC9F7880F911D969587950B
:1003D00097F90895E1E0660F771F881FBB1F62172A
:1003E00073078407BA0720F0621B730B840BBA0BE8
:1003F000EE1F88F7E09508950E94980288F09F57B5
:1004000098F0B92F9927B751B0F0E1F0660F771F38
:10041000881F991F1AF0BA95C9F714C0B13091F02E
:100420000E94B202B1E008950C94B202672F782FB7
:100430008827B85F39F0B93FCCF3869577956795F3
:10044000B395D9F73EF490958095709561957F4F5F
:100450008F4F9F4F0895E89409C097FB3EF4909505
:100460008095709561957F4F8F4F9F4F9923A9F08D
:10047000F92F96E9BB279395F6958795779567951C
:10048000B795F111F8CFFAF4BB0F11F460FF1BC060
:100490006F5F7F4F8F4F9F4F16C0882311F096E9F3
:1004A00011C0772321F09EE8872F762F05C06623A1
:1004B00071F096E8862F70E060E02AF09A95660F5A
:1004C000771F881FDAF7880F9695879597F9089513
:1004D00097F99F6780E870E060E008959FEF80ECF7
:1004E000089500240A94161617061806090608959A
:1004F00000240A9412161306140605060895092E00
:100500000394000C11F4882352F0BB0F40F4BF2B6E
:1005100011F460FF04C06F5F7F4F8F4F9F4F0895AE
:1005200057FD9058440F551F59F05F3F71F04795A4
:10053000880F97FB991F61F09F3F79F08795089589
:10054000121613061406551FF2CF4695F1DF08C0A8
:10055000161617061806991FF1CF869571056105C5
:1005600008940895E894BB2766277727CB0197F96D
:1005700008950E94CC020C947F020E94710238F010
:100580000E94780220F0952311F00C9468020C94DC
:100590006E0211240C94B3020E94900270F3959F96
:1005A000C1F3950F50E0551F629FF001729FBB276A
:1005B000F00DB11D639FAA27F00DB11DAA1F649F06
:1005C0006627B00DA11D661F829F2227B00DA11DB9
:1005D000621F739FB00DA11D621F839FA00D611D3F
:1005E000221F749F3327A00D611D231F849F600D60
:1005F000211D822F762F6A2F11249F5750409AF089
:10060000F1F088234AF0EE0FFF1FBB1F661F771F14
:10061000881F91505040A9F79E3F510580F00C94DF
:1006200068020C94B3025F3FE4F3983ED4F38695DE
:1006300077956795B795F795E7959F5FC1F7FE2B7F
:10064000880F911D9695879597F90895A29FB001FF
:10065000B39FC001A39F700D811D1124911DB29FF6
:10066000700D811D1124911D0895BB274A3031F46E
:10067000992322F4BDE2909581959F4F0C944103FC
:10068000BB27FB015527AA27880F991FAA1FA4176C
:1006900010F0A41B83955051B9F7A05DAA3308F060
:1006A000A95DA193009779F7B111B1931192CB0194
:1006B0000C945A03DC01FC01672F71917723E1F759
:1006C000329704C07C916D9370836291AE17BF071F
:0806D000C8F30895F894FFCF70
:1006D800777970656C6E69656E69653A002500000A
:00000001FF
