S01700004763634170706C69636174696F6E312E737265635B
S11300000C942A000C9434000C9434000C943400A6
S11300100C9434000C9434000C9434000C9434008C
S11300200C9434000C9434000C9434000C9434007C
S11300300C9434000C9434000C9434000C9434006C
S11300400C9434000C9434000C9434000C9434005C
S11300500C94340011241FBECFE5D8E0DEBFCDBF21
S11300600E9440000C94A9010C9400002FEF87EA31
S113007091E6215080409040E1F700C000000895CF
S11300809FEF91BB12BA82E88FBD8CE18EBD2DED3E
S113009034E037BD26BD97BB94BB1ABA1BBA82E0C5
S11300A085BB2FEF31EE44E0215030404040E1F772
S11300B000C0000020E328BB15BAEFE1FEE431974D
S11300C0F1F700C0000085BB28BB15BAEFE3FFE1E0
S11300D03197F1F700C0000085BB28BB15BAEFE3E8
S11300E0FFE13197F1F700C0000085BB2CE328BB8A
S11300F015BAEFE3FFE13197F1F700C0000085BBCB
S113010028E028BB15BAEFE3FFE13197F1F700C00F
S1130110000085BB21E028BB15BAEFEDFEE2319764
S1130120F1F700C0000085BB26E028BB15BAEFE359
S1130130FFE13197F1F700C0000085BB8FE088BB79
S113014015BAEFE3FFE13197F1F700C000001ABAE6
S113015094BB80E886B98FE19EE40197F1F700C073
S1130160000087E886B9EFE1FEE43197F1F700C0BB
S1130170000087EA86B98FE19EE40197F1F700C099
S1130180000080B710BE80E487B986B1806486B968
S113019010E082B3886082BB0E94360082B3807F05
S11301A082BB0E943600DBBDCABD84B1C5B1D0E0BC
S11301B0DC2FCC27C80FD11D93E095BB84E588BB09
S11301C081E085BBEFEFF0E722E0E150F040204012
S11301D0E1F700C0000095BB25E428BB85BB3FEFD9
S11301E040E7E2E031504040E040E1F700C0000069
S11301F095BB2DE428BB85BBFFEF20E732E0F1502F
S113020020403040E1F700C0000095BB20E528BB4A
S113021085BB4FEFE0E7F2E04150E040F040E1F70A
S113022000C0000095BB2AE328BB85BB2FEF30E755
S113023042E0215030404040E1F700C0000095BB4F
S113024023E328BB85BBEFEFF0E722E0E150F04069
S11302502040E1F700C0000095BB18BB85BB3FEF11
S113026040E7E2E031504040E040E1F700C00000E8
S113027095BB2FED28BB85BBFFEF20E732E0F150A3
S113028020403040E1F700C0000095BB93E498BBE8
S113029085BB4FEF87EA91E6415080409040E1F7FB
S11302A000C00000C83CD10538F482B3806882BB2A
S11302B082B3806482BB14E3CE018F5C91098B3CD2
S11302C0910538F482B3806882BB82B3806482BBB8
S11302D015E3CE018B5991408C3C910538F482B3DF
S11302E0806882BB82B3806482BB16E3CE018856E9
S11302F092408C3C910530F482B312BA82B380648C
S113030082BB17E3CE0185539340833B910530F4C0
S113031082B312BA82B3806482BB18E3CE01895ED1
S11303209340873C910530F482B312BA82B380784B
S113033082BB19E382E085BB81E088BB15BAEFEF8D
S1130340F0E722E0E150F0402040E1F700C0000077
S109035020CFF894FFCF5A
S9030000FC
