:100000000C942A000C9434000C9434000C943400AA
:100010000C9434000C9434000C9434000C94340090
:100020000C9434000C9434000C9434000C94340080
:100030000C9434000C9434000C9434000C94340070
:100040000C9434000C9434000C9434000C94340060
:100050000C94340011241FBECFE5D8E0DEBFCDBF25
:100060000E9436000C9409010C9400009FEF97BB8E
:1000700091BB1ABA82E082BB2FEF31EE44E02150EF
:1000800030404040E1F700C0000020E328BB12BA36
:10009000EFE1FEE43197F1F700C0000082BB28BB1E
:1000A00012BAEFE3FFE13197F1F700C0000082BB25
:1000B00028BB12BAEFE3FFE13197F1F700C000006F
:1000C00082BB2CE328BB12BAEFE3FFE13197F1F7D3
:1000D00000C0000082BB28E028BB12BAEFE3FFE1BA
:1000E0003197F1F700C0000082BB21E028BB12BAB3
:1000F000EFEDFEE23197F1F700C0000082BB26E091
:1001000028BB12BAEFE3FFE13197F1F700C000001E
:1001100082BB8FE088BB12BAEFE3FFE13197F1F7C2
:1001200000C000001ABA94BB15BA80E886B98FE106
:100130009EE40197F1F700C0000087E886B9EFE17F
:10014000FEE43197F1F700C0000087EA86B98FE13D
:100150009EE40197F1F700C0000080B710BE80E474
:1001600087B986B1806486B920E034B185B190E06A
:10017000982F8827830F911D883C910510F415BA9C
:1001800020E0AC014F5C51094B3C510518F423E0D1
:1001900025BB21E0AC014B5951404C3C510518F4B2
:1001A0002FE025BB22E0AC01485652404C3C5105A3
:1001B00018F42FE325BB23E0AC0145535340433BE8
:1001C000510518F42FE725BB24E0893E934018F031
:1001D0008FEF85BB25E083E082BB80E3820F88BB85
:1001E00012BAFFEF32E547E0F15030404040E1F70E
:1001F00000C0000082E082BB81E088BB12BA8FEFB2
:1002000090E7E2E081509040E040E1F700C000005C
:06021000ACCFF894FFCF13
:00000001FF
