S01700004763634170706C69636174696F6E312E737265635B
S11300000C942A000C9434000C9434000C943400A6
S11300100C9434000C9434000C9434000C9434008C
S11300200C9434000C9434000C9434000C9434007C
S11300300C9434000C9434000C9434000C9434006C
S11300400C9434000C9434000C9434000C9434005C
S11300500C94340011241FBECFE5D8E0DEBFCDBF21
S11300600E9436000C94A2020C9400009FEF91BBF6
S113007082E88FBD8CE18EBD4DED54E057BD46BD89
S113008097BB94BB1ABA82E085BB0FEF11EE44E034
S1130090015010404040E1F700C0000040E348BB7D
S11300A015BAAFE1BEE41197F1F700C0000085BBBB
S11300B048BB15BACFE3DFE12197F1F700C0000098
S11300C085BB48BB15BAEFE3FFE13197F1F700C0F8
S11300D0000085BB4CE348BB15BAAFE3BFE1119701
S11300E0F1F700C0000085BB48E048BB15BACFE378
S11300F0DFE12197F1F700C0000085BB41E048BB78
S113010015BAEFEDFEE23197F1F700C0000085BBB0
S113011046E048BB15BAAFE3BFE11197F1F700C061
S1130120000085BB8FE088BB15BACFE3DFE12197E0
S1130130F1F700C000001ABA94BB80E886B9EFE179
S1130140FEE43197F1F700C0000087E886B98FE13B
S11301509EE40197F1F700C0000087EA86B9AFE199
S1130160BEE41197F1F700C0000080B710BE80E430
S113017087B986B1806486B950E03BBD2ABD84B19D
S113018025B130E0322F2227280F311D93E095BB93
S1130190E3E4E8BB81E085BBBFEFC0E7D2E0B15048
S11301A0C040D040E1F700C0000095BB4AE548BB21
S11301B085BBFFEF00E712E0F15000401040E1F78B
S11301C000C0000095BB45E448BB85BB7FEFA0E7BA
S11301D0B2E07150A040B040E1F700C0000095BB10
S11301E0F3E5F8BB85BBCFEFD0E702E0C150D040C8
S11301F00040E1F700C0000095BB74E578BB85BB07
S11302001FEFA0E7B2E01150A040B040E1F700C0FA
S1130210000095BBCFE4C8BB85BBDFEF00E712E06D
S1130220D15000401040E1F700C0000095BB78BBFE
S113023085BB7FEFA0E7B2E07150A040B040E1F78A
S113024000C0000095BBACE4A8BB85BBDFEF00E7B2
S113025012E0D15000401040E1F700C0000095BB0F
S113026079E478BB85BBBFEFD0E702E0B150D04062
S11302700040E1F700C0000095BBB7E5B8BB85BB03
S11302801FEFD0E702E01150D0400040E1F700C07A
S1130290000095BBC8BB85BB1FEFC0E7D2E011507F
S11302A0C040D040E1F700C0000095BBF8BB85BB5F
S11302B0FFEF00E712E0F15000401040E1F700C00A
S11302C0000095BBE8BB85BBCFEFD0E7E2E0C150AF
S11302D0D040E040E1F700C0000095BBFAE3F8BB72
S11302E085BB0FEF10E7C2E001501040C040E1F7BA
S11302F000C0000095BBE5E3E8BB85BBDFEFE0E7AA
S113030002E0D150E0400040E1F700C0000095BB9E
S1130310E0E3E8BB85BB1FEFC0E7D2E01150C0406B
S1130320D040E1F700C00000C2E0C5BBC0ECC8BBD0
S113033085BB0FEF10E7C2E001501040C040E1F769
S113034000C0000095BBB8BB85BBDFEF00E712E03F
S1130350D15000401040E1F700C0000095BBB9E562
S1130360B8BB85BBBFEFC0E7D2E0B150C040D040BE
S1130370E1F700C0000095BBB0E5B8BB85BB0FEF4B
S113038010E7B2E001501040B040E1F700C00000B7
S113039095BB48BB85BBCFEFD0E702E0C150D0404E
S11303A00040E1F700C0000095BBA8BB85BB1FEF70
S11303B0A0E7B2E01150A040B040E1F700C0000057
S11303C095BBAEE4A8BB85BBCFEFD0E702E0C1503C
S11303D0D0400040E1F700C0000095BB78BB85BB6E
S11303E01FEFB0E7C2E01150B040C040E1F700C0D9
S11303F0000095BB48BB85BBDFEF00E712E0D1509E
S113040000401040E1F700C0000095BBA8BB85BBCD
S1130410AFEFB0E7C2E0A150B040C040E1F700C088
S1130420000095BB78BB85BBDFEF00E712E0D1503D
S113043000401040E1F700C0000095BB48BB85BBFD
S11304404FEF70E7A2E041507040A040E1F700C0D8
S1130450000095BBF8BB85BBBFEFC0E7D2E0B1504D
S1130460C040D040E1F700C0000095BB68BB85BB2D
S1130470FFEF00E712E0F15000401040E1F700C048
S1130480000095BB58BB85BB4FEF70E7A2E041501D
S11304907040A040E1F700C0000095BBE8BB85BBFD
S11304A0BFEFC0E7D2E0B150C040D040E1F700C098
S11304B0000095BB95E298BB85BBEFEFF7EA01E638
S11304C0E150F0400040E1F700C00000283C310555
S11304D010F450E360E3C9018F5C91098B3C9105F2
S11304E010F452E360E3C9018B5991408C3C9105AF
S11304F010F454E360E3C901885692408C3C9105A2
S113050010F456E360E3C90185539340833B91059E
S113051010F458E360E3C901895E9340873C910578
S113052010F450E361E382E085BB81E088BB15BA37
S11305301FEF40E772E0115040407040E1F700C007
S10B054000001BCEF894FFCF6C
S9030000FC
